{
    "address": "0x64f31d46c52bbde223d863b11dab9327ab1414e9",
    "abi": [
        {
            "inputs": [
                {
                    "internalType": "address",
                    "name": "_weth",
                    "type": "address"
                },
                {
                    "internalType": "address[]",
                    "name": "_inTokens",
                    "type": "address[]"
                },
                {
                    "internalType": "address[]",
                    "name": "_outTokens",
                    "type": "address[]"
                },
                {
                    "internalType": "address[]",
                    "name": "_oracles",
                    "type": "address[]"
                }
            ],
            "stateMutability": "nonpayable",
            "type": "constructor"
        },
        {
            "anonymous": false,
            "inputs": [
                {
                    "indexed": true,
                    "internalType": "address",
                    "name": "previousOwner",
                    "type": "address"
                },
                {
                    "indexed": true,
                    "internalType": "address",
                    "name": "newOwner",
                    "type": "address"
                }
            ],
            "name": "OwnershipTransferred",
            "type": "event"
        },
        {
            "inputs": [],
            "name": "ETH",
            "outputs": [
                {
                    "internalType": "address",
                    "name": "",
                    "type": "address"
                }
            ],
            "stateMutability": "view",
            "type": "function"
        },
        {
            "inputs": [],
            "name": "ETH_DECIMALS",
            "outputs": [
                {
                    "internalType": "uint256",
                    "name": "",
                    "type": "uint256"
                }
            ],
            "stateMutability": "view",
            "type": "function"
        },
        {
            "inputs": [],
            "name": "USD",
            "outputs": [
                {
                    "internalType": "address",
                    "name": "",
                    "type": "address"
                }
            ],
            "stateMutability": "view",
            "type": "function"
        },
        {
            "inputs": [],
            "name": "USD_DECIMALS",
            "outputs": [
                {
                    "internalType": "uint256",
                    "name": "",
                    "type": "uint256"
                }
            ],
            "stateMutability": "view",
            "type": "function"
        },
        {
            "inputs": [],
            "name": "VERSION",
            "outputs": [
                {
                    "internalType": "string",
                    "name": "",
                    "type": "string"
                }
            ],
            "stateMutability": "view",
            "type": "function"
        },
        {
            "inputs": [],
            "name": "WETH",
            "outputs": [
                {
                    "internalType": "address",
                    "name": "",
                    "type": "address"
                }
            ],
            "stateMutability": "view",
            "type": "function"
        },
        {
            "inputs": [
                {
                    "internalType": "address[]",
                    "name": "_inTokens",
                    "type": "address[]"
                },
                {
                    "internalType": "address[]",
                    "name": "_outTokens",
                    "type": "address[]"
                },
                {
                    "internalType": "address[]",
                    "name": "_oracles",
                    "type": "address[]"
                }
            ],
            "name": "addTokens",
            "outputs": [],
            "stateMutability": "nonpayable",
            "type": "function"
        },
        {
            "inputs": [
                {
                    "internalType": "uint256",
                    "name": "amountIn",
                    "type": "uint256"
                },
                {
                    "internalType": "address",
                    "name": "inToken",
                    "type": "address"
                },
                {
                    "internalType": "address",
                    "name": "outToken",
                    "type": "address"
                }
            ],
            "name": "getExpectedReturnAmount",
            "outputs": [
                {
                    "internalType": "uint256",
                    "name": "returnAmount",
                    "type": "uint256"
                },
                {
                    "internalType": "uint256",
                    "name": "returnDecimals",
                    "type": "uint256"
                }
            ],
            "stateMutability": "view",
            "type": "function"
        },
        {
            "inputs": [],
            "name": "isOwner",
            "outputs": [
                {
                    "internalType": "bool",
                    "name": "",
                    "type": "bool"
                }
            ],
            "stateMutability": "view",
            "type": "function"
        },
        {
            "inputs": [],
            "name": "owner",
            "outputs": [
                {
                    "internalType": "address",
                    "name": "",
                    "type": "address"
                }
            ],
            "stateMutability": "view",
            "type": "function"
        },
        {
            "inputs": [],
            "name": "renounceOwnership",
            "outputs": [],
            "stateMutability": "nonpayable",
            "type": "function"
        },
        {
            "inputs": [
                {
                    "internalType": "address",
                    "name": "",
                    "type": "address"
                },
                {
                    "internalType": "address",
                    "name": "",
                    "type": "address"
                }
            ],
            "name": "tokenPairAddress",
            "outputs": [
                {
                    "internalType": "address",
                    "name": "",
                    "type": "address"
                }
            ],
            "stateMutability": "view",
            "type": "function"
        },
        {
            "inputs": [
                {
                    "internalType": "address",
                    "name": "newOwner",
                    "type": "address"
                }
            ],
            "name": "transferOwnership",
            "outputs": [],
            "stateMutability": "nonpayable",
            "type": "function"
        }
    ],
    "transactionHash": "0x71509ecb39cde63ea59e8b6b5f60a224c8ba102d81298691f176a39b2bef95c7",
    "args": [
        "0xc02aaa39b223fe8d0a0e5c4f27ead9083c756cc2",
        [
            "0xEeeeeEeeeEeEeeEeEeEeeEEEeeeeEeeeeeeeEEeE",
            "0x7354C81fbCb229187480c4f497F945C6A312d5C3",
            "0x7Fc66500c84A76Ad7e9c93437bFc5Ac33E2DDaE9",
            "0x7Fc66500c84A76Ad7e9c93437bFc5Ac33E2DDaE9",
            "0xADE00C28244d5CE17D72E40330B1c318cD12B7c3",
            "0xba100000625a3754423978a60c9317c58a424e3D",
            "0x0D8775F648430679A709E98d2b0Cb6250d2887EF",
            "0xB8c77482e45F1F44dE1745F52C74426C631bDD52",
            "0x1F573D6Fb3F13d689FF844B4cE37794d79a7FF1C",
            "0x1F573D6Fb3F13d689FF844B4cE37794d79a7FF1C",
            "0x4Fabb145d64652a948d72533023f6E7A623C7C53",
            "0x56d811088235F11C8920698a204A5010a788f4b3",
            "0xc00e94Cb662C3520282E6f5717214004A7f26888",
            "0xc00e94Cb662C3520282E6f5717214004A7f26888",
            "0xA0b73E1Ff0B80914AB6fe0444E65848C4C34450b",
            "0x6B175474E89094C44Da98b954EedeAC495271d0F",
            "0x6B175474E89094C44Da98b954EedeAC495271d0F",
            "0xEd91879919B71bB6905f23af0A68d231EcF87b14",
            "0x24D9aB51950F3d62E9144fdC2f3135DAA6Ce8D1B",
            "0xdd974D5C2e2928deA5F71b9825b8b646686BD200",
            "0xdd974D5C2e2928deA5F71b9825b8b646686BD200",
            "0x514910771AF9Ca656af840dff83E8264EcF986CA",
            "0x514910771AF9Ca656af840dff83E8264EcF986CA",
            "0xBBbbCA6A901c926F240b89EacB641d8Aec7AEafD",
            "0xBBbbCA6A901c926F240b89EacB641d8Aec7AEafD",
            "0x0F5D2fB29fb7d3CFeE444a200298f468908cC942",
            "0x9f8F72aA9304c8B593d555F12eF6589cC3A579A2",
            "0x1776e1F26f98b1A5dF9cD347953a26dd3Cb46671",
            "0x408e41876cCCDC0F92210600ef50372656052a38",
            "0x408e41876cCCDC0F92210600ef50372656052a38",
            "0x221657776846890989a759BA2973e427DfF5C9bB",
            "0xC011a73ee8576Fb46F5E1c5751cA3B9Fe0af2a6F",
            "0xC011a73ee8576Fb46F5E1c5751cA3B9Fe0af2a6F",
            "0x57Ab1ec28D129707052df4dF418D58a2D46d5f51",
            "0x8CE9137d39326AD0cD6491fb5CC0CbA0e089b6A9",
            "0x0000000000085d4780B73119b644AE5ecd22b376",
            "0x1f9840a85d5aF5bf1D1762F925BDADdC4201F984",
            "0xa0b86991c6218b36c1d19d4a2e9eb0ce3606eb48",
            "0x1c48f86ae57291F7686349F12601910BD8D470bb",
            "0xdac17f958d2ee523a2206206994597c13d831ec7",
            "0x2260fac5e5542a773aa44fbcfedf7c193bc2c599",
            "0x2260fac5e5542a773aa44fbcfedf7c193bc2c599",
            "0xa982B2e19e90b2D9F7948e9C1b65D119F1CE88D6",
            "0x0bc529c00C6401aEF6D220BE8C6Ea1667F6Ad93e",
            "0xE41d2489571d322189246DaFA5ebDe1F4699F498"
        ],
        [
            "0x7354C81fbCb229187480c4f497F945C6A312d5C3",
            "0xEeeeeEeeeEeEeeEeEeEeeEEEeeeeEeeeeeeeEEeE",
            "0xEeeeeEeeeEeEeeEeEeEeeEEEeeeeEeeeeeeeEEeE",
            "0x7354C81fbCb229187480c4f497F945C6A312d5C3",
            "0x7354C81fbCb229187480c4f497F945C6A312d5C3",
            "0xEeeeeEeeeEeEeeEeEeEeeEEEeeeeEeeeeeeeEEeE",
            "0xEeeeeEeeeEeEeeEeEeEeeEEEeeeeEeeeeeeeEEeE",
            "0x7354C81fbCb229187480c4f497F945C6A312d5C3",
            "0xEeeeeEeeeEeEeeEeEeEeeEEEeeeeEeeeeeeeEEeE",
            "0x7354C81fbCb229187480c4f497F945C6A312d5C3",
            "0xEeeeeEeeeEeEeeEeEeEeeEEEeeeeEeeeeeeeEEeE",
            "0xEeeeeEeeeEeEeeEeEeEeeEEEeeeeEeeeeeeeEEeE",
            "0xEeeeeEeeeEeEeeEeEeEeeEEEeeeeEeeeeeeeEEeE",
            "0x7354C81fbCb229187480c4f497F945C6A312d5C3",
            "0xEeeeeEeeeEeEeeEeEeEeeEEEeeeeEeeeeeeeEEeE",
            "0xEeeeeEeeeEeEeeEeEeEeeEEEeeeeEeeeeeeeEEeE",
            "0x7354C81fbCb229187480c4f497F945C6A312d5C3",
            "0xEeeeeEeeeEeEeeEeEeEeeEEEeeeeEeeeeeeeEEeE",
            "0xEeeeeEeeeEeEeeEeEeEeeEEEeeeeEeeeeeeeEEeE",
            "0xEeeeeEeeeEeEeeEeEeEeeEEEeeeeEeeeeeeeEEeE",
            "0x7354C81fbCb229187480c4f497F945C6A312d5C3",
            "0xEeeeeEeeeEeEeeEeEeEeeEEEeeeeEeeeeeeeEEeE",
            "0x7354C81fbCb229187480c4f497F945C6A312d5C3",
            "0xEeeeeEeeeEeEeeEeEeEeeEEEeeeeEeeeeeeeEEeE",
            "0x7354C81fbCb229187480c4f497F945C6A312d5C3",
            "0xEeeeeEeeeEeEeeEeEeEeeEEEeeeeEeeeeeeeEEeE",
            "0xEeeeeEeeeEeEeeEeEeEeeEEEeeeeEeeeeeeeEEeE",
            "0xEeeeeEeeeEeEeeEeEeEeeEEEeeeeEeeeeeeeEEeE",
            "0xEeeeeEeeeEeEeeEeEeEeeEEEeeeeEeeeeeeeEEeE",
            "0x7354C81fbCb229187480c4f497F945C6A312d5C3",
            "0xEeeeeEeeeEeEeeEeEeEeeEEEeeeeEeeeeeeeEEeE",
            "0xEeeeeEeeeEeEeeEeEeEeeEEEeeeeEeeeeeeeEEeE",
            "0x7354C81fbCb229187480c4f497F945C6A312d5C3",
            "0xEeeeeEeeeEeEeeEeEeEeeEEEeeeeEeeeeeeeEEeE",
            "0x7354C81fbCb229187480c4f497F945C6A312d5C3",
            "0xEeeeeEeeeEeEeeEeEeEeeEEEeeeeEeeeeeeeEEeE",
            "0xEeeeeEeeeEeEeeEeEeEeeEEEeeeeEeeeeeeeEEeE",
            "0xEeeeeEeeeEeEeeEeEeEeeEEEeeeeEeeeeeeeEEeE",
            "0x7354C81fbCb229187480c4f497F945C6A312d5C3",
            "0xEeeeeEeeeEeEeeEeEeEeeEEEeeeeEeeeeeeeEEeE",
            "0xEeeeeEeeeEeEeeEeEeEeeEEEeeeeEeeeeeeeEEeE",
            "0x7354C81fbCb229187480c4f497F945C6A312d5C3",
            "0xEeeeeEeeeEeEeeEeEeEeeEEEeeeeEeeeeeeeEEeE",
            "0xEeeeeEeeeEeEeeEeEeEeeEEEeeeeEeeeeeeeEEeE",
            "0xEeeeeEeeeEeEeeEeEeEeeEEEeeeeEeeeeeeeEEeE"
        ],
        [
            "0x5f4eC3Df9cbd43714FE2740f5E3616155c5b8419",
            "0x986b5E1e1755e3C2440e960477f25201B0a8bbD4",
            "0x6Df09E975c830ECae5bd4eD9d90f3A95a4f88012",
            "0x547a514d5e3769680Ce22B2361c10Ea13619e8a9",
            "0x231e764B44b2C1b7Ca171fa8021A24ed520Cde10",
            "0xC1438AA3823A6Ba0C159CfA8D98dF5A994bA120b",
            "0x0d16d4528239e9ee52fa531af613AcdB23D88c94",
            "0x14e613AC84a31f709eadbdF89C6CC390fDc9540A",
            "0xCf61d1841B178fe82C8895fe60c2EDDa08314416",
            "0x1E6cF0D433de4FE882A437ABC654F58E1e78548c",
            "0x614715d2Af89E6EC99A233818275142cE88d1Cfd",
            "0x8f7C7181Ed1a2BA41cfC3f5d064eF91b67daef66",
            "0x1B39Ee86Ec5979ba5C322b826B3ECb8C79991699",
            "0xdbd020CAeF83eFd542f4De03e3cF0C28A4428bd5",
            "0xcA696a9Eb93b81ADFE6435759A29aB4cf2991A96",
            "0x773616E4d11A78F511299002da57A0a94577F1f4",
            "0xAed0c38402a5d19df6E4c03F4E2DceD6e29c1ee9",
            "0xD010e899f7ab723AC93f825cDC5Aa057669557c2",
            "0x24D9aB51950F3d62E9144fdC2f3135DAA6Ce8D1B",
            "0x656c0544eF4C98A6a98491833A89204Abb045d6b",
            "0xf8fF43E991A81e6eC886a3D281A2C6cC19aE70Fc",
            "0xDC530D9457755926550b59e8ECcdaE7624181557",
            "0x2c1d072e956AFFC0D435Cb7AC38EF18d24d9127c",
            "0x160AC928A16C93eD4895C2De6f81ECcE9a7eB7b4",
            "0x231e764B44b2C1b7Ca171fa8021A24ed520Cde10",
            "0x82A44D92D6c329826dc557c5E1Be6ebeC5D5FeB9",
            "0x24551a8Fb2A7211A25a17B1481f043A8a8adC7f2",
            "0x9cB2A01A7E64992d32A34db7cEea4c919C391f6A",
            "0x3147D7203354Dc06D9fd350c7a2437bcA92387a4",
            "0x0f59666EDE214281e956cb3b2D0d69415AfF4A01",
            "0xD4CE430C3b67b3E2F7026D86E7128588629e2455",
            "0x79291A9d692Df95334B1a0B3B4AE6bC606782f8c",
            "0xDC3EA94CD0AC27d9A86C180091e7f78C683d3699",
            "0x8e0b7e6062272B5eF4524250bFFF8e5Bd3497757",
            "0xFb0CfD6c19e25DB4a08D8a204a387cEa48Cc138f",
            "0x3886BA987236181D98F2401c507Fb8BeA7871dF2",
            "0xD6aA3D25116d8dA79Ea0246c4826EB951872e02e",
            "0x986b5E1e1755e3C2440e960477f25201B0a8bbD4",
            "0xfAC81Ea9Dd29D8E9b212acd6edBEb6dE38Cb43Af",
            "0xEe9F2375b4bdF6387aa8265dD4FB8F16512A1d46",
            "0xdeb288F737066589598e9214E782fa5A8eD689e8",
            "0xF4030086522a5bEEa4988F8cA5B36dbC97BeE88c",
            "0xcEBD2026d3C99F2a7CE028acf372C154aB4638a9",
            "0x7c5d4F8345e66f68099581Db340cd65B078C41f4",
            "0x2Da4983a622a8498bb1a21FaE9D8F6C664939962"
        ]
    ],
    "solcInputHash": "75811cef9dddefc03f51a714a1e57ac0",
    "bytecode": "0x60a06040523480156200001157600080fd5b5060405162001c7238038062001c72833981810160405260808110156200003757600080fd5b8151602083018051604051929492938301929190846401000000008211156200005f57600080fd5b9083019060208201858111156200007557600080fd5b82518660208202830111640100000000821117156200009357600080fd5b82525081516020918201928201910280838360005b83811015620000c2578181015183820152602001620000a8565b5050505090500160405260200180516040519392919084640100000000821115620000ec57600080fd5b9083019060208201858111156200010257600080fd5b82518660208202830111640100000000821117156200012057600080fd5b82525081516020918201928201910280838360005b838110156200014f57818101518382015260200162000135565b50505050905001604052602001805160405193929190846401000000008211156200017957600080fd5b9083019060208201858111156200018f57600080fd5b8251866020820283011164010000000082111715620001ad57600080fd5b82525081516020918201928201910280838360005b83811015620001dc578181015183820152602001620001c2565b50505050919091016040819052600080546001600160a01b03191633178082556001600160a01b0316955093507f8be0079c531659141344cd1fd0a4f28419497f9722a3daafe3b4186f6b6457e09250839150a36001600160601b0319606085901b16608052620002588383836001600160e01b03620002d316565b737354c81fbcb229187480c4f497f945c6a312d5c36000527fde3e59ea0eeb6a65f16dd826b7bdfb53723c09ad80c81d458bbf2e138d9185236020527f71be31c8c9ea1990ff1b25e32cf5546b7f5958f3992ff0a4dbb969bf1facc864546001600160a01b0316620002c957600080fd5b5050505062000507565b620002e66001600160e01b03620004f616565b62000338576040805162461bcd60e51b815260206004820181905260248201527f4f776e61626c653a2063616c6c6572206973206e6f7420746865206f776e6572604482015290519081900360640190fd5b815183511480156200034b575080518351145b620003885760405162461bcd60e51b815260040180806020018281038252602681526020018062001c256026913960400191505060405180910390fd5b60005b8351811015620004f05760006001600160a01b031660016000868481518110620003b157fe5b60200260200101516001600160a01b03166001600160a01b031681526020019081526020016000206000858481518110620003e857fe5b6020908102919091018101516001600160a01b039081168352908201929092526040016000205416146200044e5760405162461bcd60e51b815260040180806020018281038252602781526020018062001c4b6027913960400191505060405180910390fd5b8181815181106200045b57fe5b6020026020010151600160008684815181106200047457fe5b60200260200101516001600160a01b03166001600160a01b031681526020019081526020016000206000858481518110620004ab57fe5b6020908102919091018101516001600160a01b0390811683529082019290925260400160002080546001600160a01b031916929091169190911790556001016200038b565b50505050565b6000546001600160a01b0316331490565b60805160601c6116f66200052f600039806107175280610763528061090252506116f66000f3fe608060405234801561001057600080fd5b50600436106100cf5760003560e01c80638322fff21161008c57806392cd1ff21161006657806392cd1ff21461036e578063ad5c464814610376578063f2fde38b1461037e578063ffa1ad74146103a4576100cf565b80638322fff2146103425780638da5cb5b1461034a5780638f32d59b14610352576100cf565b80631bf6c21b146100d45780631ef03378146100f85780632f6ee695146102a55780633c772b6c146102bf578063662530db1461030c578063715018a61461033a575b600080fd5b6100dc610421565b604080516001600160a01b039092168252519081900360200190f35b6102a36004803603606081101561010e57600080fd5b81019060208101813564010000000081111561012957600080fd5b82018360208201111561013b57600080fd5b8035906020019184602083028401116401000000008311171561015d57600080fd5b91908080602002602001604051908101604052809392919081815260200183836020028082843760009201919091525092959493602081019350359150506401000000008111156101ad57600080fd5b8201836020820111156101bf57600080fd5b803590602001918460208302840111640100000000831117156101e157600080fd5b919080806020026020016040519081016040528093929190818152602001838360200280828437600092019190915250929594936020810193503591505064010000000081111561023157600080fd5b82018360208201111561024357600080fd5b8035906020019184602083028401116401000000008311171561026557600080fd5b919080806020026020016040519081016040528093929190818152602001838360200280828437600092019190915250929550610439945050505050565b005b6102ad610644565b60408051918252519081900360200190f35b6102f3600480360360608110156102d557600080fd5b508035906001600160a01b0360208201358116916040013516610649565b6040805192835260208301919091528051918290030190f35b6100dc6004803603604081101561032257600080fd5b506001600160a01b0381358116916020013516610800565b6102a3610826565b6100dc6108c9565b6100dc6108db565b61035a6108ea565b604080519115158252519081900360200190f35b6102ad6108fb565b6100dc610900565b6102a36004803603602081101561039457600080fd5b50356001600160a01b0316610924565b6103ac610989565b6040805160208082528351818301528351919283929083019185019080838360005b838110156103e65781810151838201526020016103ce565b50505050905090810190601f1680156104135780820380516001836020036101000a031916815260200191505b509250505060405180910390f35b737354c81fbcb229187480c4f497f945c6a312d5c381565b6104416108ea565b610492576040805162461bcd60e51b815260206004820181905260248201527f4f776e61626c653a2063616c6c6572206973206e6f7420746865206f776e6572604482015290519081900360640190fd5b815183511480156104a4575080518351145b6104df5760405162461bcd60e51b815260040180806020018281038252602681526020018061157f6026913960400191505060405180910390fd5b60005b835181101561063e5760006001600160a01b03166001600086848151811061050657fe5b60200260200101516001600160a01b03166001600160a01b03168152602001908152602001600020600085848151811061053c57fe5b6020908102919091018101516001600160a01b039081168352908201929092526040016000205416146105a05760405162461bcd60e51b81526004018080602001828103825260278152602001806115ed6027913960400191505060405180910390fd5b8181815181106105ac57fe5b6020026020010151600160008684815181106105c457fe5b60200260200101516001600160a01b03166001600160a01b0316815260200190815260200160002060008584815181106105fa57fe5b6020908102919091018101516001600160a01b0390811683529082019290925260400160002080546001600160a01b031916929091169190911790556001016104e2565b50505050565b600881565b6000806000851161068b5760405162461bcd60e51b81526004018080602001828103825260228152602001806116146022913960400191505060405180910390fd5b6001600160a01b0384166106d05760405162461bcd60e51b81526004018080602001828103825260218152602001806116776021913960400191505060405180910390fd5b6001600160a01b0383166107155760405162461bcd60e51b81526004018080602001828103825260228152602001806115a56022913960400191505060405180910390fd5b7f00000000000000000000000000000000000000000000000000000000000000006001600160a01b0316846001600160a01b031614156107615760008051602061165783398151915293505b7f00000000000000000000000000000000000000000000000000000000000000006001600160a01b0316836001600160a01b031614156107ad5760008051602061165783398151915292505b6107b6836109ab565b9050826001600160a01b0316846001600160a01b031614156107da578491506107f8565b60006107e5856109ab565b90506107f48686868486610ac9565b9250505b935093915050565b60016020908152600092835260408084209091529082529020546001600160a01b031681565b61082e6108ea565b61087f576040805162461bcd60e51b815260206004820181905260248201527f4f776e61626c653a2063616c6c6572206973206e6f7420746865206f776e6572604482015290519081900360640190fd5b600080546040516001600160a01b03909116907f8be0079c531659141344cd1fd0a4f28419497f9722a3daafe3b4186f6b6457e0908390a3600080546001600160a01b0319169055565b60008051602061165783398151915281565b6000546001600160a01b031690565b6000546001600160a01b0316331490565b601281565b7f000000000000000000000000000000000000000000000000000000000000000081565b61092c6108ea565b61097d576040805162461bcd60e51b815260206004820181905260248201527f4f776e61626c653a2063616c6c6572206973206e6f7420746865206f776e6572604482015290519081900360640190fd5b61098681610d8e565b50565b60405180604001604052806006815260200165076322e302e360d41b81525081565b60006001600160a01b038216600080516020611657833981519152148015906109f157506001600160a01b038216737354c81fbcb229187480c4f497f945c6a312d5c314155b15610a9957816001600160a01b031663313ce5676040518163ffffffff1660e01b815260040160206040518083038186803b158015610a2f57600080fd5b505afa925050508015610a5457506040513d6020811015610a4f57600080fd5b505160015b610a8f5760405162461bcd60e51b81526004018080602001828103825260298152602001806116986029913960400191505060405180910390fd5b60ff169050610ac4565b6001600160a01b03821660008051602061165783398151915214610abe576008610ac1565b60125b90505b919050565b6001600160a01b038481166000908152600160209081526040808320878516845290915281205490911615610b1557610b0e86610b068787610e2e565b858586610f19565b9050610d85565b6001600160a01b03848116600090815260016020908152604080832089851684529091529020541615610b6557610b0e86610b5d85600a0a610b57888a610e2e565b8761102b565b858686610f19565b600080600080610b758989611079565b90925090506001600160a01b0382161580610b9757506001600160a01b038116155b15610ba9576000945050505050610d85565b806001600160a01b0316826001600160a01b03161415610c1d576000610bcf8a84610e2e565b90506000610bdd8a84610e2e565b90506001600160a01b03841660008051602061165783398151915214610c04576008610c07565b60125b9450610c1482828761102b565b95505050610d71565b6001600160a01b038216600080516020611657833981519152148015610c5f57506001600160a01b038116737354c81fbcb229187480c4f497f945c6a312d5c3145b15610cce576000610c708a84610e2e565b90506000610c7e8484610e2e565b90506000610c8c8b85610e2e565b90506000610cb16402540be400610ca58486600861102b565b9063ffffffff61131516565b9050610cbf8482601261102b565b97506012965050505050610d71565b6001600160a01b038216737354c81fbcb229187480c4f497f945c6a312d5c3148015610d1057506001600160a01b038116600080516020611657833981519152145b15610d64576000610d218a84610e2e565b90506000610d2f8385610e2e565b90506000610d3d8b85610e2e565b90506000610d566402540be400610ca58686600861102b565b9050610cbf8183601261102b565b6000945050505050610d85565b610d7e8a8589868a610f19565b9450505050505b95945050505050565b6001600160a01b038116610dd35760405162461bcd60e51b81526004018080602001828103825260268152602001806115c76026913960400191505060405180910390fd5b600080546040516001600160a01b03808516939216917f8be0079c531659141344cd1fd0a4f28419497f9722a3daafe3b4186f6b6457e091a3600080546001600160a01b0319166001600160a01b0392909216919091179055565b6001600160a01b038083166000908152600160209081526040808320858516845282528083205481516350d25bcd60e01b8152915193941692849284926350d25bcd9260048083019392829003018186803b158015610e8c57600080fd5b505afa158015610ea0573d6000803e3d6000fd5b505050506040513d6020811015610eb657600080fd5b5051905060008113610f0f576040805162461bcd60e51b815260206004820181905260248201527f4f7261636c6541676772656761746f723a205072696365206e65676174697665604482015290519081900360640190fd5b9150505b92915050565b600080600084861415610f3b57610f31888887611375565b9150849050610fb9565b85851115610f80576000610f55868863ffffffff6113a416565b9050610f75610f6e8a600a84900a63ffffffff61131516565b8988611375565b925085915050610fb9565b6000610f92878763ffffffff6113a416565b9050610fb289610fac8a600a85900a63ffffffff61131516565b89611375565b9250869150505b83811415610fc957509050610d85565b80841115611003576000610fe3858363ffffffff6113a416565b9050610ff983600a83900a63ffffffff61131516565b9350505050610d85565b6000611015828663ffffffff6113a416565b9050610ff983600a83900a63ffffffff6113e616565b60006110718361106561104582600263ffffffff6113e616565b61105988600a88900a63ffffffff61131516565b9063ffffffff61142816565b9063ffffffff6113e616565b949350505050565b6001600160a01b03828116600090815260016020908152604080832060008051602061165783398151915284529091528120549091829116158015906110f157506001600160a01b03838116600090815260016020908152604080832060008051602061165783398151915284529091529020541615155b1561110e575060008051602061165783398151915290508061130e565b6001600160a01b038481166000908152600160209081526040808320737354c81fbcb229187480c4f497f945c6a312d5c38452909152902054161580159061118e57506001600160a01b038381166000908152600160209081526040808320737354c81fbcb229187480c4f497f945c6a312d5c384529091529020541615155b156111b15750737354c81fbcb229187480c4f497f945c6a312d5c390508061130e565b6001600160a01b0384811660009081526001602090815260408083206000805160206116578339815191528452909152902054161580159061122b57506001600160a01b038381166000908152600160209081526040808320737354c81fbcb229187480c4f497f945c6a312d5c384529091529020541615155b1561125c57506000805160206116578339815191529050737354c81fbcb229187480c4f497f945c6a312d5c361130e565b6001600160a01b038481166000908152600160209081526040808320737354c81fbcb229187480c4f497f945c6a312d5c3845290915290205416158015906112d657506001600160a01b03838116600090815260016020908152604080832060008051602061165783398151915284529091529020541615155b156113075750737354c81fbcb229187480c4f497f945c6a312d5c3905060008051602061165783398151915261130e565b5060009050805b9250929050565b60008261132457506000610f13565b8282028284828161133157fe5b041461136e5760405162461bcd60e51b81526004018080602001828103825260218152602001806116366021913960400191505060405180910390fd5b9392505050565b6000600a82900a610d858161106561139482600263ffffffff6113e616565b611059898963ffffffff61131516565b600061136e83836040518060400160405280601e81526020017f536166654d6174683a207375627472616374696f6e206f766572666c6f770000815250611482565b600061136e83836040518060400160405280601a81526020017f536166654d6174683a206469766973696f6e206279207a65726f000000000000815250611519565b60008282018381101561136e576040805162461bcd60e51b815260206004820152601b60248201527f536166654d6174683a206164646974696f6e206f766572666c6f770000000000604482015290519081900360640190fd5b600081848411156115115760405162461bcd60e51b81526004018080602001828103825283818151815260200191508051906020019080838360005b838110156114d65781810151838201526020016114be565b50505050905090810190601f1680156115035780820380516001836020036101000a031916815260200191505b509250505060405180910390fd5b505050900390565b600081836115685760405162461bcd60e51b81526020600482018181528351602484015283519092839260449091019190850190808383600083156114d65781810151838201526020016114be565b50600083858161157457fe5b049594505050505056fe4f7261636c6541676772656761746f723a20496e76616c696420696e707574206c656e6774684f7261636c6541676772656761746f723a206f7574546f6b656e206973205a65726f4f776e61626c653a206e6577206f776e657220697320746865207a65726f20616464726573734f7261636c6541676772656761746f723a2043616e6e6f7420757064617465206f7261636c65734f7261636c6541676772656761746f723a20616d6f756e74496e206973205a65726f536166654d6174683a206d756c7469706c69636174696f6e206f766572666c6f77000000000000000000000000eeeeeeeeeeeeeeeeeeeeeeeeeeeeeeeeeeeeeeee4f7261636c6541676772656761746f723a20696e546f6b656e206973205a65726f4f7261636c6541676772656761746f723a2045524332302e646563696d616c73282920726576657274a2646970667358221220d30e4d28cb708b92b546c6405e383e5b68b994eda16d1c2f78925d6ae840229c64736f6c634300060a00334f7261636c6541676772656761746f723a20496e76616c696420696e707574206c656e6774684f7261636c6541676772656761746f723a2043616e6e6f7420757064617465206f7261636c6573",
    "devdoc": {
        "methods": {
            "getExpectedReturnAmount(uint256,address,address)": {
                "details": "expected return amount of outToken from amountIn of inToken"
            },
            "isOwner()": {
                "details": "Returns true if the caller is the current owner."
            },
            "owner()": {
                "details": "Returns the address of the current owner."
            },
            "renounceOwnership()": {
                "details": "Leaves the contract without owner. It will not be possible to call `onlyOwner` functions anymore. Can only be called by the current owner. NOTE: Renouncing ownership will leave the contract without an owner, thereby removing any functionality that is only available to the owner."
            },
            "transferOwnership(address)": {
                "details": "Transfers ownership of the contract to a new account (`newOwner`). Can only be called by the current owner."
            }
        }
    },
    "userdoc": {
        "methods": {}
    },
    "storageLayout": {
        "storage": [
            {
                "astId": 4,
                "contract": "contracts/OracleAggregator.sol:OracleAggregator",
                "label": "_owner",
                "offset": 0,
                "slot": "0",
                "type": "t_address"
            },
            {
                "astId": 1156,
                "contract": "contracts/OracleAggregator.sol:OracleAggregator",
                "label": "tokenPairAddress",
                "offset": 0,
                "slot": "1",
                "type": "t_mapping(t_address,t_mapping(t_address,t_address))"
            }
        ],
        "types": {
            "t_address": {
                "encoding": "inplace",
                "label": "address",
                "numberOfBytes": "20"
            },
            "t_mapping(t_address,t_address)": {
                "encoding": "mapping",
                "key": "t_address",
                "label": "mapping(address => address)",
                "numberOfBytes": "32",
                "value": "t_address"
            },
            "t_mapping(t_address,t_mapping(t_address,t_address))": {
                "encoding": "mapping",
                "key": "t_address",
                "label": "mapping(address => mapping(address => address))",
                "numberOfBytes": "32",
                "value": "t_mapping(t_address,t_address)"
            }
        }
    }
}